:020000040800F2
:1000000000500020FD150008A10B0008A50B0008FA
:10001000A90B0008AD0B0008B10B000800000000A0
:10002000000000000000000000000000C1310008D6
:10003000B50B0008000000002132000865320008FE
:1000400041160008DD0D00084116000841160008A1
:100050004116000841160008411600084116000824
:100060004116000841160008411600084116000814
:100070004116000841160008411600084116000804
:1000800041160008411600084116000841160008F4
:10009000B90B000841160008411600084116000877
:1000A000411600084116000841160008E90C000836
:1000B0004116000841160008210D000841160008ED
:1000C00041160008411600084116000841160008B4
:1000D00041160008F50B00084116000841160008FB
:1000E00041160008411600084116000800000000F3
:1000F0000000000000000000000000000000000000
:0C01000000000000000000005FF808F1A3
:1001100010B5054C237833B9044B13B10448AFF341
:1001200000800123237010BDA00600200000000005
:100130000C01000808B5034B1BB103490348AFF39A
:10014000008008BD00000000A40600200C0100088B
:1001500081F0004102E000BF83F0004330B54FEA78
:1001600041044FEA430594EA050F08BF90EA020FE5
:100170001FBF54EA000C55EA020C7FEA645C7FEA78
:10018000655C00F0E2804FEA5454D4EB5555B8BF9B
:100190006D420CDD2C4480EA020281EA030382EA0C
:1001A000000083EA010180EA020281EA0303362D9E
:1001B00088BF30BD11F0004F4FEA01314FF4801C71
:1001C0004CEA113102D0404261EB410113F0004F83
:1001D0004FEA03334CEA133302D0524263EB43033A
:1001E00094EA050F00F0A780A4F10104D5F1200ED8
:1001F0000DDB02FA0EFC22FA05F2801841F1000133
:1002000003FA0EF2801843FA05F359410EE0A5F106
:1002100020050EF1200E012A03FA0EFC28BF4CF037
:10022000020C43FA05F3C01851EBE37101F00045ED
:1002300007D54FF0000EDCF1000C7EEB00006EEBFA
:100240000101B1F5801F1BD3B1F5001F0CD3490884
:100250005FEA30004FEA3C0C04F101044FEA4452DB
:1002600012F5800F80F09A80BCF1004F08BF5FEA62
:10027000500C50F1000041EB045141EA050130BD42
:100280005FEA4C0C404141EB010111F4801FA4F1E5
:100290000104E9D191F0000F04BF01460020B1FA3A
:1002A00081F308BF2033A3F10B03B3F120020CDA72
:1002B0000C3208DD02F1140CC2F10C0201FA0CF050
:1002C00021FA02F10CE002F11402D8BFC2F1200CB5
:1002D00001FA02F120FA0CFCDCBF41EA0C0190406B
:1002E000E41AA2BF01EB0451294330BD6FEA0404B4
:1002F0001F3C1CDA0C340EDC04F11404C4F120029F
:1003000020FA04F001FA02F340EA030021FA04F3B0
:1003100045EA030130BDC4F10C04C4F1200220FA07
:1003200002F001FA04F340EA0300294630BD21FA45
:1003300004F0294630BD94F0000F83F4801306BF0B
:1003400081F480110134013D4EE77FEA645C18BFFF
:100350007FEA655C29D094EA050F08BF90EA020F96
:1003600005D054EA000C04BF1946104630BD91EA8E
:10037000030F1EBF0021002030BD5FEA545C05D191
:100380004000494128BF41F0004130BD14F58004D0
:100390003CBF01F5801130BD01F0004545F0FE4144
:1003A00041F470014FF0000030BD7FEA645C1ABF79
:1003B000194610467FEA655C1CBF0B46024650EAB0
:1003C000013406BF52EA033591EA030F41F40021DC
:1003D00030BD00BF90F0000F04BF0021704730B562
:1003E0004FF4806404F132044FF000054FF0000137
:1003F00050E700BF90F0000F04BF0021704730B5F8
:100400004FF4806404F1320410F0004548BF4042CC
:100410004FF000013EE700BF42004FEAE2014FEA21
:1004200031014FEA02701FBF12F07F4393F07F4FFC
:1004300081F06051704732F07F4208BF704793F0FF
:100440007F4F04BF41F40021704730B54FF4607412
:1004500001F0004521F000411CE700BF50EA010215
:1004600008BF704730B54FF000050AE050EA0102BE
:1004700008BF704730B511F0004502D5404261EB2E
:1004800041014FF4806404F132045FEA915C3FF46F
:10049000D8AE4FF003025FEADC0C18BF03325FEA0C
:1004A000DC0C18BF033202EBDC02C2F1200300FABD
:1004B00003FC20FA02F001FA03FE40EA0E0021FAE2
:1004C00002F11444BDE600BF70B54FF0FF0C4CF4D0
:1004D000E06C1CEA11541DBF1CEA135594EA0C0F82
:1004E00095EA0C0F00F0DEF82C4481EA030621EABD
:1004F0004C5123EA4C5350EA013518BF52EA0335F8
:1005000041F4801143F4801338D0A0FB02CE4FF0A9
:100510000005E1FB02E506F00042E0FB03E54FF0D9
:100520000006E1FB03569CF0000F18BF4EF0010ED1
:10053000A4F1FF04B6F5007F64F5407404D25FEACD
:100540004E0E6D4146EB060642EAC62141EA555180
:100550004FEAC52040EA5E504FEACE2EB4F1FD0CC2
:1005600088BFBCF5E06F1ED8BEF1004F08BF5FEA40
:10057000500E50F1000041EB045170BD06F00046F2
:1005800046EA010140EA020081EA0301B4EB5C049F
:10059000C2BFD4EB0C0541EA045170BD41F4801197
:1005A0004FF0000E013C00F3AB8014F1360FDEBFBC
:1005B000002001F0004170BDC4F10004203C35DA98
:1005C0000C341BDC04F11404C4F1200500FA05F31B
:1005D00020FA04F001FA05F240EA020001F00042BC
:1005E00021F0004110EBD37021FA04F642EB060132
:1005F0005EEA430E08BF20EAD37070BDC4F10C045C
:10060000C4F1200500FA04F320FA05F001FA04F21F
:1006100040EA020001F0004110EBD37041F100010B
:100620005EEA430E08BF20EAD37070BDC4F1200516
:1006300000FA05F24EEA020E20FA04F301FA05F27E
:1006400043EA020321FA04F001F0004121FA04F226
:1006500020EA020000EBD3705EEA430E08BF20EAF6
:10066000D37070BD94F0000F0FD101F00046400030
:1006700041EB010111F4801F08BF013CF7D041EAB2
:10068000060195F0000F18BF704703F000465200B6
:1006900043EB030313F4801F08BF013DF7D043EA87
:1006A0000603704794EA0C0F0CEA135518BF95EA3D
:1006B0000C0F0CD050EA410618BF52EA4306D1D1C4
:1006C00081EA030101F000414FF0000070BD50EAE3
:1006D000410606BF1046194652EA430619D094EA6D
:1006E0000C0F02D150EA013613D195EA0C0F05D157
:1006F00052EA03361CBF104619460AD181EA0301AB
:1007000001F0004141F0FE4141F470014FF0000062
:1007100070BD41F0FE4141F4780170BD70B54FF0FD
:10072000FF0C4CF4E06C1CEA11541DBF1CEA13557D
:1007300094EA0C0F95EA0C0F00F0A7F8A4EB05045F
:1007400081EA030E52EA03354FEA013100F0888056
:100750004FEA03334FF0805545EA131343EA12631F
:100760004FEA022245EA111545EA10654FEA0026D4
:100770000EF000419D4208BF964244F1FD0404F58D
:10078000407402D25B084FEA3202B61A65EB0305E9
:100790005B084FEA32024FF480104FF4002CB6EBA6
:1007A000020E75EB030E22BFB61A754640EA0C0026
:1007B0005B084FEA3202B6EB020E75EB030E22BF66
:1007C000B61A754640EA5C005B084FEA3202B6EBA7
:1007D000020E75EB030E22BFB61A754640EA9C0066
:1007E0005B084FEA3202B6EB020E75EB030E22BF36
:1007F000B61A754640EADC0055EA060E18D04FEAF4
:10080000051545EA16754FEA06164FEAC30343EA93
:1008100052734FEAC2025FEA1C1CC0D111F4801F60
:100820000BD141EA00014FF000004FF0004CB6E759
:1008300011F4801F04BF01430020B4F1FD0C88BFF8
:10084000BCF5E06F3FF6AFAEB5EB030C04BFB6EB03
:10085000020C5FEA500C50F1000041EB045170BDF6
:100860000EF0004E4EEA113114EB5C04C2BFD4EB23
:100870000C0541EA045170BD41F480114FF0000EA7
:10088000013C90E645EA060E8DE60CEA135594EA23
:100890000C0F08BF95EA0C0F3FF43BAF94EA0C0F26
:1008A0000AD150EA01347FF434AF95EA0C0F7FF49B
:1008B00025AF104619462CE795EA0C0F06D152EAEF
:1008C00003353FF4FDAE1046194622E750EA4106D3
:1008D00018BF52EA43067FF4C5AE50EA41047FF4E4
:1008E0000DAF52EA43057FF4EBAE12E7F0B4860792
:1008F00043D0541E002A3ED0CAB2034602E014F18F
:10090000FF3438D303F8012B9D07F8D1032C2BD9E2
:10091000CDB245EA05250F2C45EA054516D9A4F1C7
:1009200010073F0903F1200606EB071603F110023A
:1009300042E9045542E902551032B242F8D104F0BE
:100940000F040137032C03EB07130DD91E46224673
:10095000043A032A46F8045BFAD8221F22F0030265
:100960000432134404F003042CB1C9B21C4403F84C
:10097000011B9C42FBD1F0BC704714460346C5E7FF
:10098000024B13B1024800F005B8704700000000A8
:10099000A1090008002301461A46184600F01EB8B7
:1009A00038B50A4C0A4D641BA4100AD004F18043E8
:1009B000013B05EB8305013C55F804399847002CB1
:1009C000F9D1BDE8384006F0C7B800BF706B000829
:1009D0006C6B0008704700BF704700BF2DE9F843FB
:1009E0002B4D0646286898460F469146FFF7F2FFC2
:1009F000284B1C68D4F84831002B3DD05A681F2A78
:100A00000DDC02F1010C16BB0232C3F804C02868E9
:100A100043F82270FFF7E0FF0020BDE8F8831E4B8B
:100A20007BB34FF4C87004F0E7FA034648B30020E4
:100A3000D4F848114FF0010CC3E900100246C4F885
:100A40004831C3F88801C3F88C01002EDCD00121A5
:100A500003EB8204C4F88890D3F8880191400843DE
:100A6000022EC3F88801C4F80881CDD1D3F88C01D7
:100A70000143C3F88C11C7E704F5A673C4F84831E5
:100A8000BCE72868FFF7A8FF4FF0FF30C5E700BFBD
:100A90003004002010630008F94F000830B400242F
:100AA0004FF41F053A4B3B49186882B040F00100F3
:100AB000186058681A4601405960196821F084711D
:100AC00021F480311960196821F480211960596876
:100AD00021F4FE0159609D6000940194196841F46D
:100AE0008031196003E0009BB3F5A06F09D0136853
:100AF00003F400330193009B01330093019B002B0F
:100B0000F1D0234B1B6813F4003318BF012301936A
:100B1000019B012B06D04FF000621F4B9A6002B080
:100B200030BC70471D491A4B08681A4640F0100047
:100B30000860086820F003000860086840F00200C0
:100B400008605968596059685960596841F4806172
:100B50005960596821F47C115960596841F4E811D1
:100B60005960196841F08071196013689B01FCD5C8
:100B70005368074923F003035360536843F00203AB
:100B800053604B6803F00C03082BFAD1C3E700BF96
:100B9000001002400000FFF800ED00E000200240DD
:100BA000704700BFFEE700BFFEE700BFFEE700BFE3
:100BB000FEE700BF704700BF002310B582B002AC53
:100BC00044F8043D02F0B2FD084B2146186801F0DC
:100BD00099FF019B3BB14FF08052054B1A60BFF368
:100BE0004F8FBFF36F8F02B010BD00BFC006002053
:100BF00004ED00E070B5402182B0344801F00AF8FD
:100C0000012824D02021314801F004F8012801D026
:100C100002B070BD2D4800F0F9FF40F20513984274
:100C20001DD002212A4A2B4C13782170E1188870BC
:100C3000A1780133DBB20229137017D00329E7D161
:100C4000022BE5D163886170A4F84D30E0E70446DB
:100C500040211E4800F0E4FF1F4B1C70D2E7022029
:100C600000221C491A4B08701A70D1E7192BCFD1FA
:100C700000232046019300F0ADFC10B3234653F847
:100C8000026F16485D68D96804F134026663A56393
:100C90001E699C685D691B7ED160006801A913769E
:100CA00094601661556101F02DFF019B002BAFD0C0
:100CB0004FF080520A4B1A60BFF34F8FBFF36F8F14
:100CC000A6E7084803F086FEA2E700BF003801400F
:100CD000BD060020F0060020BE06002040070020D0
:100CE00004ED00E01463000810B502210A4800F08A
:100CF0005DFF012800D010BD04460221064800F027
:100D000061FF0021044800F04DFF2146BDE810407E
:100D1000024800F071BF00BF002C014000240140D8
:100D2000F8B54021284800F041FF012800D0F8BD67
:100D30000446254800F038FF244E0746402122484B
:100D400000F040FF3578EDB1012DF0D14021204871
:100D500000F036FE0028EAD14FF4AA7000FB07F03D
:100D6000A0F58430A0F5D0704008FFF733FB14A342
:100D7000D3E90023FFF7A8FB164A174BC2E902018B
:100D80001D70F8BD092FD2D98021114800F018FE3E
:100D900008B13578D8E74FF4AA7000FB07F0400897
:100DA000FFF718FB06A3D3E90023FFF78DFB094AE1
:100DB000094BC2E9000135781C70C5E7AFF300802C
:100DC0002D431CEBE2361A3F00080040D8060020F5
:100DD000000C0140C8060020BC06002008B54FF4F6
:100DE000803000F033FE012800D008BD4FF4803081
:100DF00000F03AFE042000F021FFBDE8084000F0BA
:100E0000EDB900BF042170B5002284B0084601F09E
:100E100083FD6B4B032218600021012001F07CFD53
:100E2000684E306020B100231A46194601F098FD43
:100E300003220021012001F06FFD634D286020B1E5
:100E400000231A46194601F08BFD032200210120E0
:100E500001F062FD5D4C206020B100231A46194666
:100E600001F07EFD042001F005FE594B4FF0FF31EB
:100E70001860306801F00CFF4FF0FF31286801F076
:100E800007FF4FF0FF31206801F002FF00F01CFC6B
:100E90004FF4803000F038FC00F052FC012804468A
:100EA00000D0FEE7022000F091FE102000F098FE36
:100EB000002000F07FFC002000F090FC4FF48060E8
:100EC00000F082FC4FF4004000F098FC002000F09D
:100ED0008FFC4FF480304FF4E01100F049FC2046C5
:100EE00000F050FC392000F0F3FC0028FAD002207A
:100EF00000F04EFC00F056FC0828FBD1042000F066
:100F0000D7FB4FF44070002400F09CFB012540F615
:100F1000254303A8ADF80C308DF80E408DF80F5026
:100F200000F09AFB40F6145303A8ADF80C308DF88E
:100F30000E408DF80F5000F08FFB4FF4806000F0F2
:100F400081FB40F61E6303A8ADF80C308DF80E400F
:100F50008DF80F5000F080FB40F61B7303A8ADF82E
:100F60000C308DF80E408DF80F5000F075FB40F6F8
:100F7000017303A8ADF80C308DF80E408DF80F50BA
:100F800000F06AFB00F0A8FA00F000FB00F0DAF8CD
:100F900000F0D0F92346CDE9005480220D490E48D7
:100FA00000F01CFF234680220C49CDE900540C4878
:100FB00000F014FF01F024F8204604B070BD00BF1B
:100FC000E0060020C0060020EC06002040070020BC
:100FD000E806002048630008F51000085863000880
:100FE0004D14000808B51321014802F0FDFAFEE790
:100FF000606300084FF0FF30704700BF4FF40053AC
:1010000000204B60704700BF022804D90922034B1F
:1010100000201A6070470120704700BF684D002013
:101020000020704770B5104615460C4602F09CF93A
:10103000064650B154F83C2C2146AA4228BF2A4605
:1010400003F0BCFC204602F00FFA304670BD00BF32
:10105000084602F089B900BF084602F005BA00BF91
:1010600030B501218FB0022000F026FC01210820BC
:1010700000F016FC02240322182301A919488DF858
:1010800006208DF80730ADF8044000F03BFC09A8BD
:1010900000F0BEFB002463220A9B13491B09A1FB3D
:1010A0000313124DDB09013B284602A9ADF80C20C1
:1010B000ADF80830ADF80E40ADF80A4000F0DAFCAB
:1010C0000B4B284605A90593ADF81A40ADF81C4016
:1010D00000F026FD2846012100F058FDA5F840400B
:1010E0000FB030BD000C0140C55A7C0A000400401E
:1010F000600001000023F0B583B01C460193FFF7A8
:10110000AFFF00F0C3FF02AE25460D4F46F8040DB9
:101110000CE0DCB2A4F16405B5FA85F56D09A3B263
:10112000A7F840301421304601F0DAF8631C013C86
:10113000002DEED014F0FF0414BF01250025EEE7CA
:101140000004004030B5012183B0102000F0A8FB5E
:101150004FF4005503221423084C01A920468DF8B2
:1011600006208DF80730ADF8045000F0CBFB29467F
:10117000204600F031FC03B030BD00BF001001403C
:1011800070B5134803F026FC124E134D03F004FC17
:10119000C4B2312C0DD0304603F01CFC642001F0A9
:1011A000C9F84FF40051284600F016FC302CEDD160
:1011B00070BD4FF40051284600F010FC642001F08F
:1011C000B9F84FF40051284600F006FCDEE700BFF6
:1011D000746300084864000800100140174B0128A0
:1011E0001B68C3F3421307D0062B23D8DFE803F0B4
:1011F000101316191C0D1F00013B062B1AD8DFE82F
:1012000003F01A070A0D10130400C02000F00CBDF3
:10121000202000F009BD402000F006BD602000F055
:1012200003BD802000F000BDA02000F0FDBCE02048
:1012300000F0FABC7047002000F0F6BC00700040DF
:1012400000232DE9F041324882B0019303F0C2FB44
:10125000DFF8DC802E4F2F4D03F09EFBC4B2A4F1CB
:101260003003092B4BD8DFE803F04542324A4A4AA3
:101270004A2416052968284803F0ACFB254927486D
:1012800003F02AFC2968264803F0A4FB302CE3D1A4
:1012900002B0BDE8F0810023042122482E688DF8B9
:1012A00005101A46694400688DF8076001F058FB84
:1012B000ECE7002303211B482E688DF805101A4621
:1012C00001A900688DF8066001F04AFBDEE7002303
:1012D000022114482E788DF805101A4601A90068DD
:1012E0008DF806608DF8076001F03AFBCEE7002329
:1012F0000121EEE70C490D4803F06CFBC6E72146DF
:10130000404603F067FB384603F064FBBEE700BFCE
:101310007C640008DC060020D4650008F465000841
:10132000F8650008E00600206C640008C06500084D
:101330000C6600082DE9F0434FF400474FF0030915
:101340004FF01408382583B0144E01210D2000F011
:10135000A7FA134C0121134800F042FB304601A9C3
:10136000ADF804708DF806908DF8078000F0CAFA89
:1013700001A920468DF806908DF80780ADF804503D
:1013800000F0C0FA3946304600F026FB29462046D8
:1013900000F022FB03B0BDE8F08300BF000801406D
:1013A000000C014000043000F8B5244803F012FBA3
:1013B000234F244E244D03F0EFFAC4B2A4F13103BD
:1013C000032B34D8DFE803F01B270F024FF4004152
:1013D0001C4800F0FBFA01284FF4004130460BD0C6
:1013E00000F0FAFAE7E70821174800F0EFFA0128C1
:1013F0004FF008012846F3D100F0F0FADBE71021A6
:10140000114800F0E3FA01284FF010012846E7D117
:1014100000F0E4FACFE720210B4800F0D7FA0128CA
:101420004FF020012846DBD100F0D8FAC3E7384658
:1014300003F0D0FA302CBED1F8BD00BF34660008EE
:101440005C67000800080140000C0140F8B500236B
:1014500030241E4A194610680222406803F054FBEB
:1014600025461B4F1B4EA5420DD0A4F13003032B84
:1014700024D8DFE803F017120D0225463024FFF7C9
:101480007FFEA542F1D103F087FA1B28EBD1ECE7F0
:101490002546FFF789FF3024E5E72546FFF7D0FE14
:1014A0003024E0E7304603F095FA03F075FAC5B250
:1014B000302D09D02B4625461C46D4E73846254614
:1014C00003F088FA3024CEE7FF24CCE700000020A8
:1014D000A86800088067000808B502F003F802F069
:1014E0001FF8BDE8084002F023BF00BF101E14DD46
:1014F0004FF0000CF0B40139094D0A4A0F182C685E
:1015000011F8016F631CB3F5006F28BF6346B94241
:1015100016552B60F3D1F0BC70470020704700BF18
:10152000A4440020284500202DE9F047B2F1000A2C
:1015300020DD4D1E05EB0A09114C124EDFF84880E4
:10154000002702E00A2000F0F5FE23889BB2002B62
:10155000F8D0336818F80320013305F8012F2288EA
:101560003360934224BF376027804D45EDD150460C
:10157000BDE8F0874FF0000A5046BDE8F08700BF95
:10158000F0440020E4060020B044002030B50121E2
:1015900083B0042000F084F90324012210230C4DB1
:1015A00001A92846ADF804208DF807308DF80640D3
:1015B00000F0A8F90222282301A928468DF8064048
:1015C000ADF804208DF8073000F09CF903B030BD71
:1015D00000080140002330B4857E421C00F119044C
:1015E00012F8011F0B4494429BB2F9D15B42DBB26B
:1015F000581BB0FA80F030BC40097047002103E06E
:101600000A4B5B584350043109480A4B42189A422E
:10161000F6D3094A02E0002342F8043B074B9A4202
:10162000F9D3FFF73BFAFFF7EDFB7047706B00084B
:10163000000000209C060020A00600206C4D002029
:10164000FEE7000040F0BF60024B40F40030D8607D
:10165000704700BF00ED00E0F0B401240178C378CA
:1016600001F01F0294404E092BB90F4B203643F86E
:101670002640F0BC70470D4B4778DD688278E84320
:101680000F23C0F30220C0F10405C34007FA05F59B
:1016900013402B43044A1B01DBB2114481F8003391
:1016A00042F82640F0BC704700E100E000ED00E0A9
:1016B000044A042813680CBF43F0040323F0040316
:1016C0001360704710E000E04FF41F000C4B0D4A10
:1016D000196841F00101196059680A405A601A6896
:1016E00022F0847222F480321A601A6822F4802276
:1016F0001A605A6822F4FE025A609860704700BF70
:10170000001002400000FFF80C4BB0F5803F1A6853
:1017100022F480321A601A6822F480221A6008D0FB
:10172000B0F5802F04D11A6842F4A0221A607047E5
:1017300070471A6842F480321A6070470010024005
:10174000002382B0094A0193136813F4003F019B00
:1017500003F101030193019B02D1B3F5A06FF3D113
:10176000024B1868C0F3404002B0704700100240BE
:10177000034A536823F47C131943014351607047B3
:1017800000100240014B1860704700BF60004242E9
:10179000034A536823F0030318435060704700BFA7
:1017A00000100240024B586800F00C00704700BF68
:1017B00000100240034A536823F0F00318435060BE
:1017C000704700BF00100240034A536823F4E063EF
:1017D00018435060704700BF00100240034A53682E
:1017E00023F4605343EAC000506070470010024089
:1017F000014B1860704700BFD8004242034A53684B
:1018000023F4404318435060704700BF001002406B
:101810001E4A30B4536803F00C03082B0FD15368F1
:101820005168C3F38343C90303F1020328D5526807
:10183000920325D4164A02FB03F3036001E0144B24
:101840000360124A134C5168134DC1F30311615CDC
:10185000CB4043605168C1F30221615C23FA01F17E
:1018600081605168C1F3C221615CCB40C3605268A2
:10187000C2F38132AA5C30BCB3FBF2F30361704760
:10188000064A02FB03F30360DBE700BF00100240DF
:1018900000127A00380400203404002000093D00C2
:1018A000044A936919B923EA00009061704718430C
:1018B0009061704700100240044AD36919B923EAC5
:1018C0000000D06170471843D0617047001002409B
:1018D0004309012B0BD0022B094B00F01F000CBF5A
:1018E0001B6A5B6A23FA00F000F001007047044BAA
:1018F00000F01F001B6823FA00F000F001007047A1
:10190000001002402DE9F041CD78EB0648BF8B78FE
:10191000098805F00F0748BF1F4311F0FF0F21D0C2
:1019200000234FF0010C4FF00F08066802E001336E
:10193000082B16D00CFA03F232EA0104F7D19C000E
:1019400008FA04FE26EA0E0607FA04F4282D46EAF1
:10195000040632D0482D03F1010308BF0261082BB1
:10196000E8D10660FF2924D908234FF0010C4FF07D
:101970000F08466802E00133102B19D00CFA03F46B
:1019800034EA0102F7D103F18042083A920008FAE2
:1019900002FE26EA0E0607FA02F2282D46EA0206A1
:1019A00009D0482D03F1010308BF0461102BE5D1D4
:1019B0004660BDE8F0814461DDE74261B7E700BF02
:1019C0008368194214BF012000207047C368194280
:1019D00014BF0120002070470161704741617047CA
:1019E0000028194B00F44012B4BFDB695B68B2F504
:1019F000401F30B484B21ED0C20213D50322C0F3FC
:101A00000345AA4023EA020343F0706319B1420D73
:101A10001201944023430C4A0028B4BFD3615360A1
:101A200030BC7047420D120104FA02F223EA0203AD
:101A300043F07063EAE7044D23F070636A6822F0B4
:101A400070626A60E2E700BF00000140054B1A685F
:101A50005B69034004D0024214BF0120002070479C
:101A60001846704700040140014B5861704700BFA1
:101A700000040140274A0388904270B49BB212D000
:101A800002F5006290420ED0B0F1804F0BD0A2F56B
:101A90009832904207D002F58062904203D002F55E
:101AA0008062904203D14A8823F0700313431A4D99
:101AB0008C88A8420A8815D005F58065A84211D007
:101AC000CE8823F440739BB205F58C353343A8428E
:101AD0000380848502850CD170BC0B7A03860123B8
:101AE00083827047038084850285012370BC8382D2
:101AF00070470A4B9842EFD003F540639842EBD011
:101B000003F580639842E7D003F580639842E3D001
:101B1000EBE700BF002C0140001000400034014002
:101B2000028C70B422F480521204120C0D890284CB
:101B3000038C4E88848823F40053828B1B04354326
:101B400022F4E6421B0C43EA053312040E880E4DC4
:101B5000120C42EA0622A8429BB2A4B292B20BD067
:101B600005F50065A84207D0C9888480828370BCCF
:101B7000A0F84010038470478D8924F4804444EA1F
:101B80008514A4B2F0E700BF002C0140038829B9F6
:101B900023F001031B041B0C0380704743F0010377
:101BA0000380704781847047808C7047038A8289E4
:101BB00011EA030092B203D00A4214BF01200020B0
:101BC000704700BFC94389B201827047034A136856
:101BD00003F0380318431060704700BF0020024034
:101BE000044B1A6822F010021A601A681043186039
:101BF000704700BF00200240836819B923F48013A6
:101C00008360704743F48013836070478088C0F31B
:101C1000080070470388194214BF01200020704754
:101C2000C94389B201807047034A136823F0E00377
:101C300018431060704700BF00700040034B5B68A2
:101C4000034214BF01200020704700BF0070004015
:101C5000034A044B1268D268D26852681A6070470F
:101C600048070020F8070020F8B51B4B1B4E1C68E6
:101C700033680546181D0F4600F062FD40B9012289
:101C800033681749D86A0B68824023EA02030B6065
:101C90006B1C17D0336864195C600BD2114B186849
:101CA0003168043100F032FD0F4B1A68A24288BF40
:101CB0001C60F8BD0D4B18683168BDE8F840043170
:101CC00000F024BD002FE5D0316809480431BDE89B
:101CD000F84000F00DBD00BF400800204407002080
:101CE000C807002048070020F80700204C07002004
:101CF000180800200022164B10B5164C1A602268F6
:101D0000236812681B6B9A421CD9134B1B68B3FAE9
:101D100083F3DBB2C3F11F03104A03EB83039B0081
:101D2000D01841680833496813449942416008BF9C
:101D300049680B4ACB6808BF41602360236854336D
:101D4000136010BD206821683431FFF74BF9DCE7E0
:101D50004408002044070020C80700205007002046
:101D60000000002080B54FF0805A174D174F184ED5
:101D7000DFF86080DFF8609018E001F033FAFB686C
:101D8000DC68201D00F0DCFC3368013B33602B680D
:101D9000013B2B6001F036FA04F1540002F040FEE2
:101DA000206B01F061FB204601F05EFB2B68002BED
:101DB000E3D1D8F80030012BF8D9C9F800A0BFF35F
:101DC0004F8FBFF36F8FF1E7B80700202C0800207A
:101DD000B40700205007002004ED00E02DE9F84F83
:101DE0004FEA82080646404689461F460B9D01F091
:101DF000BBFA002800F0D6808246BC2001F0B4FA7D
:101E00000446002800F0A0804246C0F830A0A5217A
:101E10005046FEF76BFD236BA8F10408984428F0A8
:101E2000070809F1FF3309F10F0104F1330201E062
:101E30008B4206D013F8010F02F8010F1878002822
:101E4000F6D10A9B4FF0000B042B28BF04239946C0
:101E500004F1040AE362E364504684F843B0C4F832
:101E600050B000F041FC04F1180000F03DFCC9F155
:101E70000503A361C4F8B4B05946602284F8B8B031
:101E80002461646204F15400FEF730FDDFF860E184
:101E9000DFF860C1454B3A4631464046C4E916EC8E
:101EA000236601F075F9206005B12C6001F09AF904
:101EB0003F4A404E1368013313603368002B3CD017
:101EC0003D4FE06A3B6893B30125DFF82CE1DFF872
:101ED0002CC1DEF80080DCF8003005FA00F242EA9E
:101EE0000802DFF8DC802B4400EB8000636451467D
:101EF00008EB8000CCF80030CEF8002000F0F8FBB2
:101F000001F080F93B687BB13268E36AD26A9A4299
:101F10000AD24FF08052294B1A60BFF34F8FBFF3A4
:101F20006F8F2846BDE8F88F2846BDE8F88F3368E4
:101F3000DB6A834298BF3460C6E734601368012BC4
:101F400009D0E06A1C4FBFE7504601F08DFA4FF010
:101F5000FF30BDE8F88F1A4800F0BAFB194800F0CE
:101F6000B7FB194800F0B4FB184F194800F0B0FB5C
:101F7000184D194800F0ACFB384600F0A9FB284684
:101F800000F0A6FB154800F0A3FB154800F0A0FBED
:101F9000144800F09DFB144A144B1760E06A1D6062
:101FA000054F91E74FF0FF30BFE700BF9069000891
:101FB000B4070020440700201408002004ED00E0CE
:101FC000500700206407002078070020CC0700207D
:101FD0008C070020E0070020A00700200008002058
:101FE0002C08002018080020480700204C0700207B
:101FF000B0690008D0690008C8070020C4070020A5
:1020000030B50024154A83B0019200942346802203
:1020100013491448FFF7E2FE012801D003B030BD98
:1020200000F054FF0128F9D14FF0BF0383F311886A
:10203000BFF36F8FBFF34F8F4FF0FF310A4B0B4A47
:102040001B680B4D11600B490B4A543328600B6021
:10205000146003B0BDE8304001F030B9F40700204F
:10206000C8680008651D000844070020F807002024
:10207000140800200000002040080020024A1368D5
:1020800001331360704700BFC0070020014B186880
:10209000704700BF400800202DE9F04F424B83B04D
:1020A0001B68DBB9414B1D6801351D6025B3404BF2
:1020B00000240193019B1B68AB4235D9DFF80C81EA
:1020C000DFF80C91D9F80030DB6A03EB83039B0047
:1020D00058F80330022B28BF012404E00024354ABD
:1020E000136801331360344B1B68002B0CBF204670
:1020F000012003B0BDE8F08F304E314B31681868D5
:10210000304A3060196013680133136033681B680C
:10211000002B43D14FF0FF33254A00240192136076
:10212000019B1B68AB42C9D8244EDFF8A080DFF8C2
:10213000A090254F29E03368DB68D3F80CB0DBF8BA
:1021400004200BF1040A95422BD3504600F0F8FA14
:10215000DBF828200BF118000AB100F0F1FA012297
:10216000DBF82C003B68824000EB80001A435146AC
:1021700008EB80003A6000F0BBFAD9F80010DBF8F9
:102180002C20CB6A9A4228BF012433681B68002B9D
:10219000D1D14FF0FF33019A136093E7FFF758FD59
:1021A00085E7019B1A608DE7C007002040080020EA
:1021B000F8070020BC070020440800204807002042
:1021C0004C070020FC070020C80700205007002013
:1021D000440700202DE9F84F01F004F8354B1A6848
:1021E000013A1A601C68002C5AD1334B1B68002B33
:1021F00056D0DFF8DCA0DFF8DCB0304FDFF8D89045
:10220000DFF8D880DBF8003023B30126DBF80C3090
:10221000DC68251D04F1180000F092FA284600F051
:102220008FFAE06A3A6806FA00F300EB8000134385
:10223000294609EB80003B6000F05AFAD8F80030DC
:10224000E26ADB6A9A42DDD3CAF80060DBF800304C
:10225000002BDAD13CB11A4B1B681B6833BB4FF023
:10226000FF32184B1A60184D2C6844B10126FFF755
:1022700013FF08B1CAF80060013CF8D12C60DAF80D
:1022800000306BB14FF08052104B1A60BFF34F8F8C
:10229000BFF36F8F012400F0B5FF2046BDE8F88F33
:1022A000002400F0AFFF2046BDE8F88FFFF7D0FC18
:1022B000D9E700BFC0070020B4070020C8070020EE
:1022C00048070020F8070020BC07002004ED00E0CC
:1022D0004408002000080020500700204407002088
:1022E00038B5114C114D22680368013222602A680A
:1022F00059182CBF01240024934201600CD964B901
:10230000FFF768FF38B94FF08052094B1A60BFF3EE
:102310004F8FBFF36F8F38BD0CB98A42F0D2881A45
:102320000021FFF7A1FCEBE7C007002040080020D8
:1023300004ED00E008B540B94FF08052094B1A6037
:10234000BFF34F8FBFF36F8F08BD074A002113689B
:1023500001331360FFF788FCFFF73CFF0028EBD048
:1023600008BD00BF04ED00E0C0070020044B1B685F
:102370000BB9FFF7BFBC0122024B1A60704700BFC8
:10238000C00700204408002010B50C46054B196812
:10239000183100F0BBF92046BDE810400121FFF7DD
:1023A00063BC00BF4407002038B514460D46084BF7
:1023B0001968183100F09CF9002C08BF2846214606
:1023C000BDE8384018BF4FF0FF30FFF74DBC00BFED
:1023D00044070020F8B5C368DC6804F118052846F6
:1023E00000F0AEF9134B1B68EBB9261D304600F028
:1023F000A7F90123104DE26A2F681048934002EBC1
:1024000082023B43314600EB82002B6000F070F902
:102410000B4BE26A1B68DB6A9A4209D90123094A1D
:1024200018461360F8BD2946074800F061F9EFE748
:102430000020F8BDC0070020C8070020500700207A
:10244000440700204408002000080020034A044BF1
:1024500012681B68C0E90023704700BFFC0700201A
:1024600040080020F8B50D46044600F0BBFE2B687E
:102470001649581C0A6813D0D4E90060DFF850C030
:10248000DCF80070BE4201D090421AD9121A934271
:102490000BD8002301262B6000F0B4FE3046F8BDB7
:1024A000002600F0AFFE3046F8BD0026DCF8000044
:1024B00009689B1A2B60C4E9000100F0A3FE3046B6
:1024C000F8BD012600F09EFE3046F8BD4008002011
:1024D000FC0700200122014B1A60704744080020CD
:1024E000054B1B6833B1054B1B68002B0CBF02204A
:1024F000002070470120704714080020C00700200A
:102500002DE9F0410746C8B1254DC26A2968C96A5C
:102510008A4215D28169002904DB2968C96AC1F1A0
:10252000050181611F4E02EB8202796906EB82028E
:1025300091420ED001202A68D26AFA62BDE8F08189
:102540002A68C06CD36A98422CBF00200120BDE8E5
:10255000F08107F10408404600F0F2F868B9F96A22
:1025600001EB81039B00F3583BB901230E4A8B40DA
:10257000116821EA0301116000E00B4A01242B6875
:102580001568D86A4146F86204FA00F300EB80004F
:1025900006EB80002B43136000F0AAF82046CDE73D
:1025A0004407002050070020C807002050B1F8B5AC
:1025B000C16A036DC26C013B9142036500D01BB13F
:1025C0000020F8BD00207047071D0446384600F083
:1025D000B7F8C0B11448154E0125E36CD6F800E0F9
:1025E000C3F1050C05FA03F2E36203EB830342EA4D
:1025F0000E0200EB83003946C4F818C0326000F0C8
:1026000077F82846F8BDE26A074802EB82039B0090
:10261000C3583BB90123054E9340326822EA0302B6
:102620003260D9E7014ED7E750070020C8070020E5
:1026300058B1C26CF8B5914238BF1146C36A8B429B
:1026400002D0026D012A01D0F8BD70478269184D91
:10265000002A03EB83034269C16205EB8303A4BF35
:10266000C1F1050181619A42EED1071D0446384649
:1026700000F066F80122E36A68B10E4E9A409800B5
:1026800034681844224305EB800039463260BDE8C7
:10269000F84000F02DB89800C118890069589A4098
:1026A000044E0029ECD1316821EA02013160E7E7EC
:1026B00050070020C8070020044B1A681AB1196897
:1026C0000A6D01320A651868704700BF4407002090
:1026D0004FF0FF31002200F1080381600260436087
:1026E000C0E90333704700BF00230361704700BF98
:1026F000436810B49C6802688C609C6801324B602F
:102700006160996010BC08610260704730B40D6868
:102710006B1C11D000F1080200E01A4653681C68D7
:10272000AC42FAD904684B60013499608A60516008
:102730000861046030BC704702695368F2E700BF6B
:10274000036910B4D0E901215C689160816884421A
:102750004A6008BF596000211A680161013A1A6095
:10276000186810BC704700BF70B50446006CA56BBC
:1027700028B926680135002E2ED0A56370BD1646F7
:10278000024686B9A06802F019F9A368216C626854
:102790000B44934205F10105A36015D3236830462D
:1027A000A360A56370BDE06802F008F9226CE368DD
:1027B0005242216813448B42E36002D263681A4498
:1027C000E260022E03D001350020A56370BD002D0C
:1027D000FAD101250020D0E76068FFF7E7FE6660C8
:1027E000CBE700BF026C72B10B46C16810B44468FD
:1027F0001144A142C16028BF016810BC28BFC1605C
:10280000184602F0DBB8704770B5054600F0EAFCE8
:1028100095F8454064B2002C16DD6B6AA3B105F152
:10282000240605E0013CE3B25CB26BB16B6A5BB1BC
:102830003046FFF7CFFD0028F4D0013CFFF74AFEF9
:10284000E3B25CB2002BF1D1FF2385F8453000F0F4
:10285000D9FC00F0C7FC95F8444064B2002C16DDAA
:102860002B69A3B105F1100605E0013CE3B25CB2AF
:102870006BB12B695BB13046FFF7ACFD0028F4D09B
:10288000013CFFF727FEE3B25CB2002BF1D1FF233E
:1028900085F84430BDE8704000F0B4BC70B5044623
:1028A0000E46FF2500F09EFCD4E90F23002102FB19
:1028B00003F22068D31A03440244A163626084F8DF
:1028C0004450C4E9020384F84550BEB923691BB9DA
:1028D00000F098FC012070BD04F11000FFF77AFDB4
:1028E0000028F5D04FF080520A4B1A60BFF34F8F8B
:1028F000BFF36F8F00F086FC012070BD04F1100063
:10290000FFF7E6FE04F12400FFF7E2FE00F07AFC98
:10291000012070BD04ED00E0F8B5064617460D46EF
:1029200051B100FB01F0503000F01EFD044698B19B
:1029300000F15003036005E0502000F015FD04464F
:1029400050B12460C4E90F6501212046FFF7A6FFBE
:1029500084F84C702046F8BD00242046F8BD00BF26
:102960002DE9F047002684B004468A4601921F46AE
:10297000B046DFF8FC9027E000F044FCFFF77EFB58
:1029800000F030FC94F84430FF2B08BF84F84480FA
:1029900094F84530FF2B08BF84F8458000F032FCE6
:1029A00001A902A8FFF75EFD002850D100F01AFC33
:1029B000A26BE36B9A4217D000F024FC2046FFF78D
:1029C00023FFFFF707FC012600F00CFCA26BE36B72
:1029D0009A4220D3022F1ED0019D95B3002ECBD159
:1029E00002A8FFF733FDC7E700F00CFC019904F1E2
:1029F0001000FFF7C9FC2046FFF706FFFFF7EAFBD0
:102A00000028E0D14FF08053C9F80030BFF34F8F5A
:102A1000BFF36F8FD7E73A4651462046FFF7A4FE33
:102A2000636AEBB938B14FF08052114B1A60BFF3B3
:102A30004F8FBFF36F8F00F0E5FB012004B0BDE8BE
:102A4000F08700F0DFFB284604B0BDE8F0872046A1
:102A5000FFF7DAFEFFF7BEFB002004B0BDE8F08709
:102A600004F12400FFF7B6FC0028DCD1E3E700BF47
:102A700004ED00E010B5024600210120FFF74CFFF5
:102A8000044638B10023C0E90033C3601A46194632
:102A9000FFF766FF204610BDF8B5EFF311864FF043
:102AA000BF0484F31188BFF36F8FBFF34F8F856B23
:102AB000C46BA54205D3022B03D0002086F31188F6
:102AC000F8BD90F84540174664B21A460546FFF730
:102AD0004BFE631C07D0013464B285F845400120E9
:102AE00086F31188F8BD6B6A002BF8D005F124003D
:102AF000FFF770FC0028F2D0002FF0D001203860E2
:102B0000DCE700BF38B5EFF311844FF0BF0383F368
:102B10001188BFF36F8FBFF34F8F826BC36B9342EC
:102B20000ED990F8453001325BB282635A1C0BD04B
:102B300001335BB280F84530012084F3118838BD41
:102B4000002084F3118838BD436A002BF4D0243070
:102B50000D46FFF73FFC0028EED0002DECD0012001
:102B60002860EAE72DE9F043044685B089460192E2
:102B700000F038FBA56B002D55D1019B002B6FD0C9
:102B800002A82E46FFF762FCDFF8008104F124075B
:102B90001FE000F027FBA36B002B52D100F032FBAB
:102BA00001993846FFF7F0FB2046FFF72DFEFFF7AF
:102BB00011FB38B94FF08053C8F80030BFF34F8F86
:102BC000BFF36F8F00F00EFBA56B65BB019B002B65
:102BD00046D000F017FBFFF751FA00F003FB94F822
:102BE0004430FF2B08BF84F8446094F84530FF2B35
:102BF00008BF84F8456000F005FB01A902A8FFF7B3
:102C000031FC0028C5D02046FFF7FEFDFFF7E2FAB1
:102C100000F0E8FAA36B1BB300F0F4FA00F0E2FA5C
:102C2000A56B002DD2D049462046013DFFF7DAFDC5
:102C3000A5632369D3B900F0E5FA012005B0BDE82A
:102C4000F08300F0DFFA2046FFF7DEFDFFF7C2FA5F
:102C500000F0C8FAA56B002DE5D1019B002BB8D17F
:102C600000F0D0FA002005B0BDE8F08304F11000B8
:102C7000FFF7B0FB0028DED04FF08052034B1A6004
:102C8000BFF34F8FBFF36F8FD5E700BF04ED00E0B8
:102C90002DE9F0434FF0000885B004460191464607
:102CA0004746DFF844911DE000F09CFAA36B002B2F
:102CB0004AD100F0A7FA2368002B63D0019904F1F0
:102CC0002400FFF761FB2046FFF79EFDFFF782FA25
:102CD00038B94FF08053C9F80030BFF34F8FBFF3BE
:102CE0006F8F012600F07EFAA36BABBB019D002D18
:102CF00041D02EB300F086FAFFF7C0F900F072FA67
:102D000094F84430FF2B08BF84F8447094F84530A1
:102D1000FF2B08BF84F8457000F074FA01A902A8DF
:102D2000FFF7A0FB0028BFD02046FFF76DFDFFF79F
:102D300051FA00F057FAA36B6BB300F063FAD0E7D7
:102D400002A8FFF783FBD5E700F05CFA2046FFF707
:102D50005BFDFFF73FFAC4E72268013BA363002A4B
:102D60003DD0236963BB00F04DFA4FF001084046A7
:102D700005B0BDE8F083A84600F044FA404605B02F
:102D8000BDE8F08300F02EFA6068FFF7B9FB8046DB
:102D900000F038FA92E700F035FAB8F1000FE6D00B
:102DA00000F020FA616A19B1236B1968C1F10501BD
:102DB0006068FFF73DFC4FF0000800F023FAD6E70B
:102DC00004F11000FFF706FB0028CCD04FF0805232
:102DD000054B1A60BFF34F8FBFF36F8FC3E7FFF749
:102DE0006BFC6060BDE700BF04ED00E070B5044619
:102DF0000D46164600F0F6F994F84430FF2B04BF58
:102E0000002384F8443094F84530FF2B04BF00239E
:102E100084F8453000F0F6F9A36B2BB93246294609
:102E200004F12400FFF7C0FA2046BDE87040FFF728
:102E3000EBBC00BFF8B50F4C00F0D4F925681DB10C
:102E4000BDE8F84000F0DEB90B4F0C4E3846FFF7F6
:102E50003FFC3046FFF73CFC09490A4B0F602A460D
:102E60000C210A201E60FFF757FD2060BDE8F840E6
:102E700000F0C8B97C080020500800206408002039
:102E8000480800204C080020914208B500614160CC
:102E900005D88169D21A8A420CD3012008BD9A4212
:102EA00001D29942F9D2074B011D1868FFF72EFC99
:102EB000002008BD044B011D1868FFF727FC002007
:102EC00008BD00BF480800204C08002000B583B0B2
:102ED000FFF7B0FF074B186848B10422064B0749BB
:102EE000CDE90023064800238022FEF777FF03B0D8
:102EF0005DF804FB7C08002080080020D0680008F2
:102F0000CD2F000830B5144D85B02C68C4B105290B
:102F1000CDE9011203900BDCFFF7E2FA022812D090
:102F2000002328681A4601A9FFF71AFD05B030BD35
:102F30001A462046002301A9FFF7AEFD05B030BDBB
:102F4000204605B030BD28680023089A01A9FFF784
:102F500007FD05B030BD00BF7C0800202DE9F04121
:102F6000184E82B04FF000080CE0DB68DC681F6888
:102F7000251D2846FFF7E4FB636A20469847E3696E
:102F8000012B0AD033681A68002AEED10E4A116864
:102F90001360316002B0BDE8F081A3693B449F42F9
:102FA00006D26360246129463068FFF7AFFBE9E78A
:102FB0000023CDF800803A4620461946FFF7A2FFCD
:102FC000E0E700BF480800204C0800202DE9F04F42
:102FD0004FF00108594F5A4D5A4CDFF8709187B0A5
:102FE0003B681E68002E46D0DB681E68FFF746F877
:102FF000FFF74CF82B68824683424DD88642286002
:1030000054D90022A6EB0A012068FFF7EFFEFFF774
:10301000E1F838B94FF080534B4A1360BFF34F8F3C
:10302000BFF36F8F002203A92068FFF79BFD0028E4
:10303000D6D0039B002BF5DB059E736913B1301DC1
:10304000FFF77EFBFFF722F82B68824698422AD3CF
:10305000039BC5F800A0092BE4D808FA03F313F486
:10306000047B62D113F0C70F45D19B06DAD53046F9
:1030700000F0FAF9D6E7FFF701F8FFF707F82B6839
:103080008246834208D8D9F80030C5F800A01A68F3
:10309000B2FA82F25209B5E7FFF760FFC5F800A067
:1030A000FFF798F8BEE7FFF759FFD1E7FFF792F86F
:1030B0003B68DB68D3F80CB00BF10400FFF740FB72
:1030C000DBF81C30012B04D0DBF82430584698473D
:1030D000A8E7DBF818105246314433465846FFF74C
:1030E000D3FE0028F0D000233246009319465846FC
:1030F000FFF708FFE8E7049BB169524619443046E0
:10310000FFF7C2FE00288DD0736A30469847F369F6
:10311000012B87D1B369049A30461A44CDF800B028
:103120005B465946FFF7EEFE7CE704993046B161F5
:10313000534651445246FFF7A7FE73E74808002064
:10314000780800207C08002004ED00E04C080020F6
:10315000002382B001934FF0BF0383F31188BFF3C4
:103160006F8FBFF34F8F019B002BFCD002B07047D5
:1031700006480068006880F3088862B661B6BFF34D
:103180004F8FBFF36F8F00DF00BF000008ED00E03E
:1031900010B44FF08074064B21F0010140F8202C50
:1031A00040E9021440F80C3C10BC4038704700BFA6
:1031B0005131000800000000000000000000000085
:1031C000074B19680868B0E8F00F80F30988BFF36F
:1031D0006F8F4FF0000080F311884EF00D0E704796
:1031E000440700204FF0BF0383F31188BFF36F8FB4
:1031F000BFF34F8F024A136801331360704700BF5B
:1032000048040020034A1368013B13600BB983F3A1
:1032100011887047480400200000000000000000F2
:10322000EFF30980BFF36F8F0D4B1A6820E9F00FA1
:1032300010602DE908404FF0BF0080F31188FFF7C0
:1032400095F84FF0000080F31188BDE80840196838
:103250000868B0E8F00F80F30988BFF36F8F7047FC
:103260004407002008B54FF0BF0383F31188BFF374
:103270006F8FBFF34F8FFEF70FFF18B14FF08052E3
:10328000024B1A60002383F3118808BD04ED00E0AF
:103290000022072130B4054B054D064C06481A6044
:1032A0002A600460196030BC704700BF10E000E085
:1032B00018E000E03F19010014E000E010B5002420
:1032C000104B82B01A6842F47F021A601A6842F00A
:1032D0007F421A60FFF7DCFF0B4B1C60FFF748FFD3
:1032E000FFF744F801944FF0BF0383F31188BFF355
:1032F0006F8FBFF34F8F019B002BFCD0002002B0DB
:1033000010BD00BF20ED00E04804002010B4144AB6
:1033100000E01A4613688342FBD351685418A04258
:1033200009D041684418A3420CD09042036010BCFD
:1033300018BF106070474468104621444418A342E7
:103340005160F2D1074C2468A342EED018CB9042D2
:103350002144C0E9003110BC18BF1060704700BFA5
:1033600094440020840800202DE9F8430746FEF726
:1033700085FE36480368002B3DD0354BD3F80080DE
:1033800017EA080F5CD1002F30D007F108014B0776
:103390001CBF21F007010831002951D0DFF8C4908B
:1033A000D9F800608E424BD32A4D2C6803E0226886
:1033B00022B12546144663688B42F8D30268A242C4
:1033C0003ED02F6820685A1A102A07F10807286093
:1033D0002FD8214AF61A116843EA08038E4238BFF3
:1033E00016600022C4E90023C9F80060FEF7F2FE6F
:1033F0003846BDE8F883194B00215A071CBF073334
:1034000023F007031C464FF00045154A124E22F0E8
:103410000702D31A3360134E116051600260C4E991
:10342000002333600A4A0B4BA846C3E900411560EC
:10343000A6E7601842606160FFF768FF6368C8E74D
:103440000027FEF7C7FE3846BDE8F8838408002051
:1034500088440020944400209044002088080020E4
:10346000804400208C44002040B1104A50F8043CB5
:103470001268134202D050F8081C01B1704710B511
:10348000044623EA020340F8043CFEF7F7FD084A2D
:1034900054F8043C1168A4F108000B441360FFF7D2
:1034A00035FFBDE81040FEF795BE00BF8844002000
:1034B0008C44002030B40025013AD2B28C1C04EBBD
:1034C0004204020F092AD3B203F130028ABF373314
:1034D0000A700B704D7002318C424FEA0010F0D12F
:1034E00030BC704730B5012183B00820FEF7D8F911
:1034F0004FF4007503221023084C01A920468DF8D3
:1035000006208DF80730ADF80450FEF7FBF9294688
:103510002046FEF763FA03B030BD00BF000C014047
:1035200008B50020FEF764F9BDE8084001214FF41A
:103530000000FEF7C1B900BF4FF4007110B9034895
:10354000FEF74ABA0148FEF749BA00BF000C014035
:10355000704700BFF8B51F4D2B78012B0AD01E4ACB
:103560001E4913680968B3F5006F04D08B4225D15A
:1035700000232B70F8BD002313600029F8D01848F1
:10358000184E3160402913D940244033403913602C
:10359000316001262246C0212E7000F0A7FF304680
:1035A000214601F0A9F83046BDE8F84001F00AB81C
:1035B00000270B4413608CB23760EAE7084C98B2DE
:1035C000204404D9074EC3F500613160DAE7C91A17
:1035D000D6E700BF9C440020A8440020A44400205B
:1035E00028450020A044002030B40D4D2B68CC1895
:1035F000A4B2B4F5006F02D300230C462B60A342A3
:103600000CD2084A01381A44611C013310F8014FEA
:103610002B6001338B4202F8014FF7D130BC704769
:10362000A4440020274500200A490B4A0B4B086898
:1036300010B514681B68C01800D110BD08220849D5
:10364000FFF738FF2046BDE8104004220549FFF788
:1036500031BF00BFE8F7FF1FECF7FF1FF0F7FF1FB8
:103660004E0400205E04002038B5154B1A78012A5C
:1036700000D038BD134A1168F9B1134840290368D6
:1036800014D80025CC18046015608CB20F489BB28A
:1036900018442246C02100F029FF2146012001F0F4
:1036A0002BF8BDE83840012000F08CBF03F1400446
:1036B0004039046011604024E8E7197038BD00BF4C
:1036C0009C440020A0440020A8440020284500205D
:1036D00010B5094C0320214601F066F8074B80B273
:1036E000188019882046C9B2FFF732FFBDE81040A4
:1036F000032000F07BBF00BFB0440020F044002056
:10370000084B1B68052B00D07047074B1A68052A29
:1037100002F1010101D01960704700221A60FFF721
:1037200019BF00BFF4440020AC4400201A4970B512
:103730000B681A4C9BB21A4D238022882B881A40A2
:10374000900511D422881A4012041CD4228802F455
:10375000806213421FD0BDE870404FF6FF310E4A21
:10376000104B11605B6818474FF6FF530E4A0B6011
:1037700013780133DBB21370FFF7C2FF2B88228866
:103780001A401204E2D500F0EFFD22882B8802F4E3
:1037900080621342DFD170BD445C0040284D0020A0
:1037A000604D0020B0040020F2440020034B9B7ABF
:1037B00013B10522024B1A60704700BF3C4D002038
:1037C000F44400200422014B1A607047F4440020A6
:1037D000034B1A78202A04BF00221A70704700BFDA
:1037E000F3440020704700BF212814D0202803464E
:1037F00018D1104A1268117801F07F01212915D1E2
:103800000D480E49037010B5002491615482204682
:103810008847204610BD074B1A68137803F07F03D2
:10382000212B01D0022070470549ECE7024A022013
:10383000137070475C4D0020F3440020913800085D
:1038400079380008074B1B681B7803F07F03212B96
:1038500006D100F0DF00022814BF022000207047CC
:10386000022070475C4D002021B901288CBF022046
:10387000002070470220704708B1034870470822B3
:10388000024B1B681A827047280500205C4D0020FF
:10389000FFF7F2BF10B50024FFF7C6FE044B1B680C
:1038A0009C7200F095F800F06DFF024B1C6010BD9B
:1038B0005C4D0020F444002010B50024324B334A04
:1038C0001B68D2795C815A72204600F031FE204696
:1038D0004FF4007100F034FE2046102100F03EFE4F
:1038E0002046402100F0DCFE8021204600F0C8FE8A
:1038F000204600F09FFE264B204693F82C1000F047
:1039000009FF204600F072FE2146012000F018FE5B
:10391000C021012000F0B4FE2021012000F01EFE95
:103920002146012000F034FE4FF4C061022000F077
:1039300007FE4FF48071022000F0A2FE2146022013
:1039400000F026FE2021022000F008FE2146032080
:1039500000F0F6FD4FF48871032000F0A1FE402135
:10396000032000F0D7FE4FF44051032000F010FE7A
:103970002146032000F0F2FD204600F0B7FC0122B2
:10398000044B1A6010BD00BF5C4D0020D8680008D1
:10399000B0040020F4440020014900F0E7B900BF62
:1039A000A8040020014900F0E1B900BFA0040020F4
:1039B000054B1B68DB78042B04D8044901EBC301D9
:1039C00000F0D4B9002070475C4D0020E4040020D2
:1039D00038B50120FFF7B0FD012500204FF4E0527B
:1039E000044B054C05491D60186020600A801A6070
:1039F00038BD00BF405C0040445C0040604D00208A
:103A000008B538B1064B1B681B689847054B18680A
:103A10000A3008BD0122034B1B681A8208BD00BF93
:103A2000584D00205C4D002008B538B1064B1B688E
:103A30009B689847054B18680C3008BD0122034B62
:103A40001B681A8208BD00BF584D00205C4D002045
:103A500008B51E4B1A68002832D000211C4801808E
:103A6000137813F07F030FD1527A12F0200318BF9E
:103A7000022351061DD543F001030370154B1B684B
:103A80001B699847124808BD012BFCD0022B1AD1A4
:103A9000527902F00F039B0003F1804303F5B84312
:103AA00012061B6807D403F44053B3F5805FE5D1D9
:103AB00001230370E2E703F03003102BDED1F7E7B8
:103AC0000223138208BD084608BD00BF5C4D0020DC
:103AD0002C4D0020584D00202DE9F041244F3D6829
:103AE0002C8A2CB92E7A042E2BD0AB8A042604E023
:103AF000AB8A9C428CBF022604269C4228BF1C46EF
:103B0000AB69204698478046002000F0D9FD224648
:103B10000146404600F0EAFC2146002000F0ECFDA2
:103B200030204FF440522B8A698A1B1B2B820C4495
:103B3000104B11496C8208803D681A802E72BDE8D6
:103B4000F0810E4B1A78012A06D0102207260A4B64
:103B50001A802E72BDE8F08130200949094A0968AF
:103B600089B20A440449520014601C700880E5E7D9
:103B70005C4D0020624D0020644D0020F844002080
:103B8000505C0040023000200B4B0C4A1B685178FF
:103B9000DA7891420BD3997849B910B59C8844B929
:103BA00007499A720B685B689847204610BD02204F
:103BB0007047022010BD00BF5C4D0020E0040020D3
:103BC000584D002010B5104A104C1268236882B07E
:103BD000D97858799369984723689A7A8AB101907D
:103BE00078B91A796AB99B785BB9094B1B68DB68AD
:103BF0009847236801985979DA78D9721A7302B014
:103C000010BD022002B010BD344D00205C4D0020DC
:103C1000584D002038B52E4B1B68187810F07F00E7
:103C20002CD0022828D15A882ABB1A791ABB5A7973
:103C3000284D22F08000840004F1804404F5B8444B
:103C4000216852B22D78002AB4BF01F0300101F48E
:103C50004051854210D979B19B7A6BB1002A236813
:103C600011DB03F44053B3F5805F19D01A4B1B6886
:103C70005B699847002038BD022038BD5A7A22F08F
:103C800020025A7238BD03F03003102BEED1C4B2BB
:103C9000204600F0E3FC2046302100F05FFCE5E721
:103CA00090B90E4B93F82C1000F034FD236823F4E8
:103CB000804323F070039BB283F4405343F40043EA
:103CC00043F080032360D1E700F0B6FCEEE700BFCD
:103CD0005C4D0020E0040020584D0020B00400207E
:103CE00038B51F4B1F4D18682D78427922F080049B
:103CF000A30003F1804303F5B843196852B2002AC8
:103D0000B4BF01F0300101F44051A54219D94488F3
:103D1000BCB9B1B1817AA1B1002A1A6813DB22F4CF
:103D2000804222F0700292B282F4805242F4004249
:103D300042F080021A600C4B1B689B699847002078
:103D400038BD022038BD22F4E04222F0400292B297
:103D500082F0100242F4004242F080021A60EAE768
:103D60005C4D0020E0040020584D0020054B1B68EE
:103D70005A8A10B108681044704789888A1A1A82D2
:103D8000704700BF5C4D002010B50C4B002093F82D
:103D90002C1000F0BFFC0A4B1B68187A082806D1CB
:103DA0004FF4805410220749074B0C801A80A0F171
:103DB0000900B0FA80F0400910BD00BFB004002037
:103DC0005C4D0020624D0020644D0020F0B5A94EEE
:103DD000A94B34681A68237A83B0092B2CD10122AD
:103DE000E38865782272002B45D0062D7ED0002D09
:103DF00040F08D80618831B9636823F47F43B3F567
:103E0000003F00F01B819D4B1B681B6928469847AB
:103E1000032800F0A7804FF6FF7133681A8A8A42A0
:103E200000F09980022840F0838008221A7203B0C3
:103E3000BDE8F040FFF7A8BF914B92B213445B007E
:103E40001D886D0005F1804505F5C0452B78237070
:103E50006B786370A88800F08FFC608028893468D4
:103E600000F08AFC0122A080AB893468E380657889
:103E70002272002BB9D1227812F07F021BD1092DBA
:103E800000F0B080052D00F09B80032D00F0B28083
:103E9000012D00F0DD80794B28461B685B6998474F
:103EA000032867D03468A0B10823237203B0BDE8AB
:103EB000F040FFF769BF012A48D0022AEBD1012D5B
:103EC00000F09580032DE6D1FFF70AFF0028E2D12C
:103ED000346800253020684A6A4B12686A4992B2F9
:103EE00013445B001D6006230880DEE72278634BE5
:103EF00050061B6889D1A278012A00F09D80022A11
:103F000073D0032A81D15A6A42B906257DE7082D6C
:103F100033D123785B067FF476AF5C4A0020A26140
:103F2000608290474FF6FF7133681A8A8A4212D036
:103F3000002A3FF47AAF93F9001000296CDB0320CC
:103F40004FF44051524A18721180AFE70B2DA2D1A5
:103F5000FFF738FEBAE709221A7203B0BDE8F04055
:103F6000FFF712BF092233681A7203B0BDE8F040B0
:103F7000FFF70ABF3468092397E7404F0A2D3B68D3
:103F80007FF443AF227802F07F02012A7FF43DAF35
:103F9000A27A002A3FF439AF618800297FF435AF57
:103FA000626822F47F42B2F5803F7FF42EAF9B69B6
:103FB00060799847002840F08C803468354AADE736
:103FC00094F90330002BFFF66FAFA378002B7FF43A
:103FD0006BAFA388002B7FF467AFA37A002B3FF46D
:103FE00078AF61E7FFF7D0FD70E71A6A8CE7FFF75B
:103FF00011FE6BE7E378012B7FF44DAFA388002B14
:104000007FF449AF637A244A43F020031268637255
:10401000D369984734685CE71848D98800680191EB
:10402000019D90F82C40AA42A0B23BD9019A1A8275
:104030009882FFF751FD39E7DA6965E7257815F0D1
:104040007F0537D1A388002B7FF4DDAE134A65E7E7
:10405000E278012A7FF41FAFA288002A7FF41BAF09
:10406000627A94067FF517AF0D4A1360FFF7D2FD11
:104070002CE700BF5C4D0020505C0040344D002018
:104080000430002002300020644D0020013A000876
:10409000624D0020293A0008584D0020513A00088E
:1040A000FC4400209142C3D9824216D200211F4A0B
:1040B0001170BDE7012D1AD11D4F60793B689B69D6
:1040C000984730B93468A37A002BBFD165783B6834
:1040D0009BE632683B68557897E692FBF4F104FB67
:1040E0001122002AA4D10121104A1170A0E7022D4B
:1040F00018D1657905F00F029300290603F180437A
:104100000C4903F5B8431B6809784CBF03F0300332
:1041100003F44053914205D915F0700502D1002BEC
:1041200094D170E6024B00251B686EE6F84400202F
:10413000344D0020E0040020F8B53C4D2C68237A73
:10414000022B12D0042B10D0032B14D0052B12D02D
:10415000072B0AD1364B1B68DB68984708232C686D
:104160002372BDE8F840FFF70FBE08232372BDE8B5
:10417000F840FFF709BEA369228AB3B1A68A4AB301
:10418000964228BF164630469847228A638A921B79
:104190003344074622826382002000F09FFA3246B1
:1041A0000146384600F0B2F9228A002A2ED00021BA
:1041B0004FF440521F4B08461A8000F09DFA3022FF
:1041C000238AA18A1C4E994232802A681AD94BBB95
:1041D000144602E0B24216D2174E0622144B227247
:1041E0001B689B6898472C68237A082B13D00025FE
:1041F00030201249124A096889B20A4452001560F7
:104200003080B3E7144603232372AFE7A38A2C68F8
:10421000002BE1D1F7E74FF48050102205490880C8
:104220003280A3E70523144613729FE75C4D0020FC
:10423000344D0020624D0020644D0020505C004051
:1042400002300020F8B5234C23681A7A022A17D0CE
:10425000042A15D0062A05D008221A72BDE8F840B3
:10426000FFF792BD5A78052A13D01B4B1B689B6839
:104270009847082223681A72BDE8F840FFF784BD0A
:10428000FFF72AFC23681A7A1A72BDE8F840FFF794
:104290007BBD1A7812F07F02E7D1104993F803C072
:1042A0000D7875B140F60F7748F280060C490B681F
:1042B00042EA06003B4001320343954241F8043B89
:1042C000F5D10849084A4CF080030B6013681B6A5B
:1042D0009847CAE75C4D0020344D0020E0040020E0
:1042E000005C00404C5C0040584D0020F0B40C4B8A
:1042F0001D787DB1002240F60F7748F2800609490B
:104300000B6842EA06043B4001322343954241F8E0
:10431000043BF5D1F0BC044B40F0800018607047BE
:10432000E0040020005C00404C5C0040704700BF8F
:10433000022030B4064A074D074C084B107208495A
:10434000084823602A601B68086030BC184700BF1B
:104350003C4D00205C4D0020344D0020B004002076
:10436000584D00200405002000232DE9F047DFF818
:10437000748184B0554D564C564EADF80E302B68B6
:10438000554F9AB21B045549DFF85C91A8F80020FC
:1043900040F18F80B8F8003003F00F039A0002F16B
:1043A000804202F5B8422370002B32D14BF6BF7A1F
:1043B0003B689BB20B800B8803F03003A9F80030F8
:1043C0000B8803F440530B803B6803EA0A0383F431
:1043D000005383F0200343F4004343F080033B6029
:1043E000B8F80030D8063AD53B689BB2ADF80E302D
:1043F000BDF80E301A055FD4BDF80E301B04BED5D3
:1044000040F68F723B68019113403B60FFF794FECA
:104410002DE01168324889B2ADF80E10BDF80E10CB
:10442000013B090407D540F68F77116850F8230047
:10443000394011608047BDF80E301A069FD548F606
:104440000F702278930003F1804303F5B843196895
:10445000013A014056F82220196090478FE748F64C
:104460000F723B68019113403B60FFF7EBFE01992F
:104470003B680A8803EA0A0A0B88D60448BF8AF414
:10448000805A9D04B9F8003048BF8AF4005ADC060F
:10449000B9F8003048BF8AF0100A980648BF8AF081
:1044A000200A4AF4004A4AF0800A0B4A1FFA8AF3AB
:1044B000136004B0BDE8F08740F68F723B6801914D
:1044C00013403B60FFF782FCD1E700BF445C004033
:1044D000384D002068040020005C0040624D002040
:1044E00084040020284D0020644D002001F100517B
:1044F000013201F5405152104FEA410105D030F828
:10450000023B013A21F8043BF9D1704701F1005117
:10451000013201F5405152104FEA410106D00B68BB
:10452000013A01F1040120F8023BF8D1704700BFC5
:104530004FF6F873014A034013607047505C004027
:10454000800000F1804000F5B840036823F4EC439C
:1045500023F07003194389B201607047800000F1B5
:10456000804000F5B8400368CA0623F4E04323F016
:1045700040039BB248BF83F010038A0648BF83F014
:10458000200343F4004343F080030360704700BFFF
:10459000800000F1804000F5B8400368CA0423F4AD
:1045A000804323F070039BB248BF83F480538A0496
:1045B00048BF83F4005343F4004343F08003036097
:1045C000704700BF800000F1804000F5B8400368EC
:1045D00023F4E04323F040039BB283F0300343F421
:1045E000004343F080030360704700BF800000F188
:1045F000804000F5B840036823F4804323F0700343
:104600009BB283F4405343F4004343F080030360C0
:10461000704700BF40F60F63800000F1804000F556
:10462000B8400268134043F4004343F08003036042
:10463000704700BFFFF7EEBF800000F1804000F53B
:10464000B84003685B0408D540F60F720368134056
:1046500043F4404343F0800303607047800000F15F
:10466000804000F5B84003685B0608D540F60F723D
:104670000368134043F4004343F0C00303607047F2
:10468000064B49081B6849009BB203EBC00000F1D0
:10469000005000F54050400001607047505C004001
:1046A000054A064B1268490892B202EBC002134455
:1046B00049005B0019607047505C004004300020E6
:1046C000054B1B689BB203EBC00000F1005000F5E6
:1046D0004050400000887047505C0040044A054B41
:1046E000126892B202EBC00003445B001888704766
:1046F000505C004004300020044A054B126892B21E
:1047000002EBC00003445B0019607047505C00403E
:10471000023000200E4A0F4B12683E2992B202EB83
:10472000C00003444FEA43030AD94A09C80604BF3C
:1047300002F1FF3292B2920242F400421A607047D4
:104740004A08C90748BF013292021A60704700BF89
:10475000505C004006300020054A064B126892B2B9
:1047600002EBC00003445B001868C0F30900704707
:10477000505C004006300020C3B2000A40EA03202B
:10478000704700BF00204FF4064310B40349044CA7
:10479000044A20600B8010BC13607047604D0020FD
:1047A000445C0040405C004070B500F07F05284646
:1047B0000E46FFF7D1FF04462846FFF78FFF22463B
:1047C00001463046FFF7A2FE204670BD002310B51B
:1047D0000446C0E90033836081814366C281C0E939
:1047E00004338361194608225C30FCF77FF8054BDF
:1047F00024626362044BA362044BE362044B2363B1
:1048000010BD00BF654C0008874C0008BF4C000875
:10481000E34C0008014900F0A1B800BF3D4E00087C
:1048200070B568254A1E55430E4605F17401FCF724
:104830000FFC044640B10021C0E900160C30A06016
:1048400005F16802FCF752F8204670BD836910B587
:10485000044633BBC0E912330365124B124A1B688E
:104860008262984204BF0123836100F01FF86060F8
:10487000204600F01BF8A060204600F017F8002248
:10488000E06004216068FFF7A1FF01220921A06810
:10489000FFF79CFF02221221E068FFF797FF012338
:1048A000A36110BD1063000815480008F8B51B4B44
:1048B00007461E68B36913B93046FFF7C7FF48368D
:1048C000D6E90134013B03D5336833B13668F7E7E5
:1048D000B4F90C506DB16834F4E704213846FFF7A1
:1048E0009FFF30600028F1D10C2304463B60204636
:1048F000F8BD0B4B6566C4E90055A560C4E90335F6
:10490000C4E905550822294604F15C00FBF7EEFFD7
:10491000C4E90D55C4E91255E9E700BF106300086A
:104920000100FFFF2DE9F0418846002600F1480410
:1049300014B93046BDE8F081D4E90175013F01D5D5
:104940002468F5E7AB89012B06D9B5F90E300133A0
:1049500002D02846C04706436835EFE72DE9F84303
:1049600080468946002600F1480414B93046BDE867
:10497000F883D4E90175013F01D52468F5E7AB89D7
:10498000012B07D9B5F90E30013303D02946404633
:10499000C84706436835EEE7074B10B51C6824B1DD
:1049A000A36913B92046FFF751FF61682046BDE8AF
:1049B000104000F07FBA00BF0000002010B5431E79
:1049C0000A44914200D110BD11F8014B03F8014F88
:1049D000F7E700000FB40A4B13B51C6824B1A369B4
:1049E00013B92046FFF732FF05AB049AA1682046B1
:1049F000019300F031FB02B0BDE8104004B07047F5
:104A00000000002038B50C460968054609B1FFF7DB
:104A1000F9FF21462846BDE83840FCF71DBB0000E1
:104A20002C4B70B51B680446834251D0436A43B196
:104A3000DB68002B4AD1636A196811B12046FCF784
:104A40000BFB616911B12046FCF706FB616A11B1ED
:104A50002046FCF701FBA16B11B12046FCF7FCFAE4
:104A6000E16B11B12046FCF7F7FA216C11B1204639
:104A7000FCF7F2FAE16D11B12046FCF7EDFAA16DF9
:104A800011B12046FCF7E8FA616B11B12046FCF742
:104A9000E3FAA369E3B1A36A20469847A16CB9B1D0
:104AA0002046BDE87040FFF7ADBF495941B9043514
:104AB000636A802DD968F8D12046FCF7CDFABAE7B1
:104AC0000E682046FCF7C8FA3146EFE70025EFE70D
:104AD00070BD00BF000000200FB40A4B13B51C6866
:104AE00024B1A36913B92046FFF7B0FE05AB049AC1
:104AF00061682046019300F09BFE02B0BDE81040C3
:104B000004B07047000000202DE9F7431D46514BCB
:104B100004461E680F46904626B1B36913B9304665
:104B2000FFF794FE4C4B9C4252D17468B8F1020FCF
:104B300006D0B8F1010F00F28980002DC0F2868006
:104B40002146304600F07AF9616B41B104F144032B
:104B5000994202D03046FCF77FFA002363630023BA
:104B6000A3616360A3891B0603D521693046FCF766
:104B700073FAA389B8F1020F23F44A6323F0030305
:104B8000A3815DD001AB6A462146304600F0D0F9E2
:104B9000A3891843A0812DBB009D284600F02CFA64
:104BA000074600284ED1DDF80090A9453CD14FF0D2
:104BB000FF30A38943F00203A3810023A36004F123
:104BC0004703236023610123636103B0BDE8F083E1
:104BD000224B9C4201D1B468A8E7214B9C4208BFFC
:104BE000F468A3E7002FD8D0B36913B93046FFF7B4
:104BF0002DFEB8F1010F08BFA389276004BF43F061
:104C00000103A381A389C4E9047513F008001BD034
:104C100013F001004FF000031FBF6D42A360A561B8
:104C2000184608BFA560D0E7484600F0E5F90746FA
:104C30000028BCD0A3894D4643F08003A381D3E76D
:104C40000020B6E7A946F5E7A060BEE74FF0FF30C9
:104C5000BBE700BF00000020B0690008D069000871
:104C60009069000810B50C46B1F90E1000F060FF15
:104C70000028ABBF636DA3891B1823F48053ACBF1E
:104C80006365A38110BD2DE9F0411F468B89054660
:104C9000DB050C46164605D502230022B1F90E109D
:104CA00000F034F9A389324623F48053A381B4F988
:104CB0000E103B462846BDE8F04100F017B810B58D
:104CC0000C46B1F90E1000F021F9431CA38915BF61
:104CD000606523F4805343F48053A38118BFA381FC
:104CE00010BDB1F90E1000F013B8000038B505463C
:104CF000084611460022054C22601A46FCF7F6FBD6
:104D0000431C02D1236803B12B6038BD684D0020DD
:104D100038B50023054C054608462360FCF76AF9C0
:104D2000431C02D1236803B12B6038BD684D0020BD
:104D30008A892DE9F041054610070C4658D44B6886
:104D4000002B05DC0B6C002B02DC0020BDE8F081A1
:104D5000E66A002EF9D0002312F480522F68216AEF
:104D60002B6032D0606DA3895A0705D56368C01ADD
:104D7000636B0BB1236CC01A00230246E66A216AFA
:104D80002846B047431CA38906D129681D2948D865
:104D9000294ACA40D60744D5002262602269D90454
:104DA000226004D5421C01D12B6803B96065616B98
:104DB0002F600029C9D004F14403994202D028464B
:104DC000FCF74AF900206063C0E701232846B0479A
:104DD000411CC8D12B68002BC5D01D2B01D0162B30
:104DE00001D12F60B1E7A38943F04003A381ADE770
:104DF0000F69002FA9D0930718BF00230E6808BFC2
:104E00004B69A6EB07080F608B60B8F1000F9CDDC3
:104E100043463A46216A2846A66AB047002806DC7F
:104E2000A38943F04003A3814FF0FF308EE707448E
:104E3000A8EB0008E9E700BF0100402038B50B6986
:104E400005460C46DBB118B183690BB9FFF7FEFCD0
:104E50000C4B9C4209D16C68B4F90C307BB12146F3
:104E60002846BDE83840FFF763BF074B9C4201D19D
:104E7000AC68F1E7054B9C4208BFEC68ECE700200A
:104E800038BD00BFB0690008D0690008906900080B
:104E9000014620B9044B05491868FFF75FBD044B74
:104EA0001868FFF7CBBF00BF106300083D4E000835
:104EB0000000002038B50C46054618B183690BB9CF
:104EC000FFF7C4FC0E4B9C420BD16C686368013B3E
:104ED000002B63600FDA21462846BDE8384000F019
:104EE000CFBE084B9C4201D1AC68EFE7064B9C4219
:104EF00008BFEC68EAE723685A1C2260187838BDBE
:104F0000B0690008D06900089069000838B5054606
:104F1000084611460022054C22601A46FCF780F82C
:104F2000431C02D1236803B12B6038BD684D0020BB
:104F300070B50E46B1F90E1096B0002914461D4604
:104F400007DA00232B60B3891A0610D44FF480636C
:104F50000EE06A4601F074F90028F2DB019A02F4CF
:104F60007042A2F500535A425A412A60EEE74023AC
:104F70000020236016B070BD8B8973B59D0706466F
:104F80000C4607D504F147032360236101236361C5
:104F900002B070BD01AB6A46FFF7CAFF0099054633
:104FA0003046FCF755F848B9B4F90C309A05EFD4FF
:104FB00023F0030343F00203A381E3E70D4BB36245
:104FC000A389206043F08003A381009B206163617B
:104FD000019B5BB1B4F90E10304601F043F928B1E2
:104FE000A38923F0030343F00103A381A3891D4395
:104FF000A581CDE715480008024B01461868FCF76B
:1050000027B800BF00000020936810B4013B002BBC
:10501000936007DA9469A34201DB0A2902D110BC2C
:1050200001F04EB81368581C10601970084610BC87
:105030007047F8B506460F461446D518AC4201D164
:10504000002007E03A4614F8011B3046FFF7DCFF6A
:10505000431CF3D1F8BD00002DE9F04F9DB00C4684
:1050600017460393064618B183690BB9FFF7EEFBA9
:105070007B4B9C4257D17468A38918075DD523697F
:10508000002B5AD00023099320238DF82930302398
:105090004FF0010B8DF82A30B846454615F8013B14
:1050A0000BB1252B54D1B8EB070A0BD053463A4627
:1050B00021463046FFF7BDFF013000F0C280099B5A
:1050C0005344099398F80030002B00F0BA80002375
:1050D0004FF0FF32CDE90523049307938DF8533049
:1050E0001A93A846052218F8011B5E4801F0EEF855
:1050F000049B78BBD90644BF20228DF853201A07A1
:1051000044BF2B228DF853202A782A2A2AD0A84679
:1051100000200A25079A414611F8013B303B092B34
:1051200069D960B324E0504B9C4201D1B468A3E735
:105130004E4B9C4208BFF4689EE72146304601F082
:1051400011F800289ED04FF0FF301DB0BDE8F08F61
:10515000A846A2E7434A4546801A0BFA00F01843D6
:105160000490BEE7039A111D12680391002A01DB27
:10517000079204E0524243F002030792049398F826
:1051800000302E2B0ED198F801302A2B38D1039BFA
:1051900008F102081A1D1B680392002BB8BF4FF0DC
:1051A000FF330593324D032298F80010284601F092
:1051B0008DF840B14023401B03FA00F0049B08F136
:1051C00001080343049398F800100622294808F1C7
:1051D00001078DF8281001F079F8002837D0264B08
:1051E0001BBB039B073323F0070308330393099B7F
:1051F0004B44099350E705FB0232012088468AE7B9
:1052000000230A25194608F101080593404610F8C5
:10521000012B303A092A03D9002BC3D00591C1E7ED
:1052200005FB012101238046F0E703AB00932246F2
:10523000124B04A93046AFF30080B0F1FF3F814626
:10524000D5D1A3895B063FF57EAF09987DE703AB17
:1052500000932246094B04A9304600F087F8ECE79A
:10526000B0690008F0690008D0690008906900087A
:10527000F6690008FA6900080000000033500008D1
:105280002DE9F04791461F468A680B69064693420E
:10529000B8BF1346C9F8003091F843200C46DDF83A
:1052A000208012B10133C9F800302368990642BF4B
:1052B000D9F800300233C9F80030256815F006052A
:1052C00007D104F1190AE368D9F800209B1AAB4210
:1052D00029DC94F843302268003318BF012392067A
:1052E0002ED404F1430239463046C047013021D064
:1052F0002368E56803F00603042B18BF0025D9F8DE
:1053000000204FF0000908BFAD1AA368226908BF4A
:1053100025EAE5759342C4BF9B1AED181A344D4532
:105320001AD1002008E00123524639463046C047D2
:10533000013003D14FF0FF30BDE8F0870135C2E7FF
:105340003020E11881F843005A1C94F8451022449B
:10535000023382F84310C4E701232246394630461F
:10536000C0470130E6D009F10109D8E72DE9F04343
:1053700001F1430C0C46097E85B06E29174606469E
:1053800098460C9A00F0B38022D8632936D00AD808
:10539000002900F0B980582900F0838004F142050B
:1053A00084F8421032E0642901D06929F6D12068DE
:1053B0001368050603F104012AD51B681160002B50
:1053C00003DA2D225B4284F843206F480A2239E039
:1053D000732900F09D8008D86F2920D07029DDD175
:1053E000236843F02003236003E0752917D0782950
:1053F000D4D17823654884F8453055E0136804F12A
:105400004205191D1B68116084F8423001238CE0AD
:105410001B6810F0400F116018BF1BB2CFE7136874
:105420002568181D1060280601D51B6802E0680673
:10543000FBD51B886F2914BF0A220822524800217D
:1054400084F843106568002DA560C0F2958021683E
:1054500021F004012160002B3DD1002D40F08E8011
:105460006546082A0BD12368DB0708D523696268E3
:105470009A42DEBF302305F8013C05F1FF35ACEB65
:1054800005032361CDF800803B4603AA2146304640
:10549000FFF7F6FE01304DD14FF0FF3005B0BDE80B
:1054A000F083394884F84510136821681D1D1B6876
:1054B00015600A060BD5CA0744BF41F020012160E0
:1054C0001BB9226822F0200222601022B7E74D06A5
:1054D00048BF9BB2EFE76546B3FBF2F102FB113325
:1054E000C35C05F8013D0B460029F5D1B9E7136807
:1054F0002568181D6169106028061B6801D51960B0
:1055000002E06A06FBD51980002365462361B9E7EE
:105510001368191D11601D6862680021284600F09B
:10552000D5FE08B1401B606063682361002384F8E6
:105530004330A7E723692A4639463046C047013041
:10554000AAD023689B0713D4E068039B9842B8BF96
:105550001846A3E701234A4639463046C047013082
:105560009AD00135E368039A9B1AAB42F2DCEBE771
:10557000002504F11909F5E7002BACD1037804F1FB
:10558000420584F842306CE7016A0008126A00089C
:105590002DE9F04FADF5257D0193002306460C461D
:1055A00092460A27469347939D4B0DF10C08A29310
:1055B0009C4BDFF87492CDF82081A3939AF80030C9
:1055C000002B00F02A81554600F060FE15F801BB63
:1055D0005844437813F008031CD06368002B12DD95
:1055E00000F054FE23681A7810444278120701D460
:1055F000AA46E3E7479A0133013247926268236083
:10560000013A6260E9E7A39B2146304698470028AB
:10561000E6D0EDE7BBF1250F40F082804593439340
:105620009AF801302A2B03D110230AF10205439383
:10563000AA4615F8011BA1F13002092A22D903223A
:10564000794800F043FE38B1A0EB09030120AA46D7
:105650009840439B184343909AF800300AF10105A3
:10566000672B2BD8652B80F09F80472B10D8452BBC
:1056700080F09A80002B6CD0252B51D003234497C7
:10568000499327E0459B07FB0313303B4593CFE746
:105690005B2B6AD00CD8582BF0D1439A42F400729D
:1056A0004392102244926E2B8CBF0423032310E0FC
:1056B000632B65D0642BE1D14497F4E7702B4BD07A
:1056C00026D86E2B62D04CD8692BD7D100234493B7
:1056D000032349936368002B68DD439B590607D475
:1056E00000F0D4FD23681A7810444278120764D47D
:1056F000499B022B73DC01AB224643A9304600F0E4
:10570000BFF8012800F0898002287FF471AF1DE006
:10571000752BD1D0782BC0D0732BAFD10223D8E713
:105720006368002B0CDD23681A785A4575D1013364
:1057300062682360479B013A01336260479357E7F1
:10574000A39B2146304698470028ECD04698002875
:1057500059D14FF0FF305CE0439A42F0200243926F
:105760009BE7082344930423B3E72946404600F00F
:10577000B3FA439B054643F0400343930123A8E754
:10578000439B43F0400343930023A2E74398C3069F
:105790003FF52EAF019B479A191D01911B68C00769
:1057A0004CBF1A801A6023E7052392E7A39B21468A
:1057B00030469847002890D0C8E7479A0132479270
:1057C0006268013A002A626002DD0133236087E7E4
:1057D000A39B214630469847002881D0B6E7042B8A
:1057E00006DC01AB224643A9304600F0ABF888E75F
:1057F0000E4B002B3FF4FCAE01AB224643A93046D2
:10580000AFF300807DE7A38913F0400F18BF4FF07E
:10581000FF300DF5257DBDE8F08F4698F9E700BF14
:10582000DD5F0008695B0008F66900080000000001
:105830002DE9F0410C4616461F46054618B183690E
:105840000BB9FFF703F80B4B9C4208D16C683B4641
:10585000324621462846BDE8F041FFF799BE064B87
:105860009C4201D1AC68F2E7044B9C4208BFEC6853
:10587000EDE700BFB0690008D06900089069000832
:105880002DE9F04115468A6880460C4632B98A698E
:10589000002A14BF4FF0FF3201228A6000262268DE
:1058A000D1065FBF1A68111D19601768A369DBB1C3
:1058B000012B07D12B6862691B78D35CA3B9002E3A
:1058C00031D106E0022B07D0002E2CD1A369012B89
:1058D00029D10120BDE8F08100F0D8FC2B681B78AD
:1058E000184443781B07EFD423680136DA065EBFFD
:1058F0002B681B783B702A686B6802F101022A60F2
:10590000A26803F1FF3302F1FF326B6058BF013729
:10591000A26042B1002BC9DCD4F880312946404650
:1059200098470028C2D0236813F0100305D1E2681D
:105930000132E260A26902B13B70236900201E447B
:105940002661C7E72DE9F04F0C469A46744B87B0A5
:105950008346164693E8070003ABA76883E8070071
:10596000704BA169704A04F11C09032908BF1A464B
:105970007B1EB3F5AE7F84BF40F25D13A360236846
:1059800088BF6FF4AE7543F45063236098BF00275F
:105990004B464FF00008009288BF7F193168019391
:1059A00003AB53F828000222097800F08FFC019B1A
:1059B00030B3B8F1010F5AD162682AB908212268C0
:1059C000616042F400722260226822F4A0622260C8
:1059D000A268511EA1609AB132685D1C511C3160F1
:1059E00012781A707368013B002B736007DCD4F8DF
:1059F0008031314658469847002840F087802B4632
:105A000008F10108B8F1030FC8D162680AB90A2287
:105A10006260626845496069891A019300F05CF927
:105A2000019B4FF000081D46A3682268002B3BD065
:105A30003168606991F800C010F80C00002833D07C
:105A4000BCF1300F21D110051FD508F1010817B1A5
:105A50000133013FA3607368013B002B73601CDDC1
:105A6000336801333360A368013BA360DCE7B8F11E
:105A7000020FADD1226802F4C061B1F5007FBFD141
:105A8000102142F480726160A1E722F4106222606A
:105A90000B78013505F8013CDDE7D4F8803131465B
:105AA000584698470028DED02368D9050CD54D45C7
:105AB00008D915F8011C6F1ED4F87C3132465846BF
:105AC00098473D464D4529D0226812F0100213D167
:105AD0002A70636849465846009EB047DAF800309D
